{
  "_format": "hh-sol-artifact-1",
  "contractName": "SapienceMarket",
  "sourceName": "contracts/SapienceMarket.sol",
  "abi": [
    {
      "inputs": [
        {
          "internalType": "address",
          "name": "owner_",
          "type": "address"
        },
        {
          "internalType": "address",
          "name": "sapienceToken_",
          "type": "address"
        },
        {
          "internalType": "address",
          "name": "paymentToken_",
          "type": "address"
        },
        {
          "internalType": "uint256",
          "name": "sapiencePerPaymentUnit_",
          "type": "uint256"
        }
      ],
      "stateMutability": "nonpayable",
      "type": "constructor"
    },
    {
      "inputs": [
        {
          "internalType": "address",
          "name": "owner",
          "type": "address"
        }
      ],
      "name": "OwnableInvalidOwner",
      "type": "error"
    },
    {
      "inputs": [
        {
          "internalType": "address",
          "name": "account",
          "type": "address"
        }
      ],
      "name": "OwnableUnauthorizedAccount",
      "type": "error"
    },
    {
      "inputs": [],
      "name": "ReentrancyGuardReentrantCall",
      "type": "error"
    },
    {
      "inputs": [
        {
          "internalType": "address",
          "name": "token",
          "type": "address"
        }
      ],
      "name": "SafeERC20FailedOperation",
      "type": "error"
    },
    {
      "anonymous": false,
      "inputs": [
        {
          "indexed": true,
          "internalType": "address",
          "name": "buyer",
          "type": "address"
        },
        {
          "indexed": false,
          "internalType": "uint256",
          "name": "paymentAmount",
          "type": "uint256"
        },
        {
          "indexed": false,
          "internalType": "uint256",
          "name": "sapienceAmount",
          "type": "uint256"
        }
      ],
      "name": "Bought",
      "type": "event"
    },
    {
      "anonymous": false,
      "inputs": [
        {
          "indexed": true,
          "internalType": "address",
          "name": "previousOwner",
          "type": "address"
        },
        {
          "indexed": true,
          "internalType": "address",
          "name": "newOwner",
          "type": "address"
        }
      ],
      "name": "OwnershipTransferred",
      "type": "event"
    },
    {
      "anonymous": false,
      "inputs": [
        {
          "indexed": true,
          "internalType": "address",
          "name": "seller",
          "type": "address"
        },
        {
          "indexed": false,
          "internalType": "uint256",
          "name": "sapienceAmount",
          "type": "uint256"
        },
        {
          "indexed": false,
          "internalType": "uint256",
          "name": "paymentAmount",
          "type": "uint256"
        }
      ],
      "name": "Sold",
      "type": "event"
    },
    {
      "anonymous": false,
      "inputs": [
        {
          "indexed": true,
          "internalType": "address",
          "name": "token",
          "type": "address"
        },
        {
          "indexed": true,
          "internalType": "address",
          "name": "to",
          "type": "address"
        },
        {
          "indexed": false,
          "internalType": "uint256",
          "name": "amount",
          "type": "uint256"
        }
      ],
      "name": "Withdrawn",
      "type": "event"
    },
    {
      "inputs": [
        {
          "internalType": "uint256",
          "name": "paymentAmount",
          "type": "uint256"
        }
      ],
      "name": "buy",
      "outputs": [],
      "stateMutability": "nonpayable",
      "type": "function"
    },
    {
      "inputs": [],
      "name": "owner",
      "outputs": [
        {
          "internalType": "address",
          "name": "",
          "type": "address"
        }
      ],
      "stateMutability": "view",
      "type": "function"
    },
    {
      "inputs": [],
      "name": "paymentToken",
      "outputs": [
        {
          "internalType": "contract IERC20",
          "name": "",
          "type": "address"
        }
      ],
      "stateMutability": "view",
      "type": "function"
    },
    {
      "inputs": [
        {
          "internalType": "uint256",
          "name": "paymentAmount",
          "type": "uint256"
        }
      ],
      "name": "previewBuy",
      "outputs": [
        {
          "internalType": "uint256",
          "name": "",
          "type": "uint256"
        }
      ],
      "stateMutability": "view",
      "type": "function"
    },
    {
      "inputs": [
        {
          "internalType": "uint256",
          "name": "sapienceAmount",
          "type": "uint256"
        }
      ],
      "name": "previewSell",
      "outputs": [
        {
          "internalType": "uint256",
          "name": "",
          "type": "uint256"
        }
      ],
      "stateMutability": "view",
      "type": "function"
    },
    {
      "inputs": [],
      "name": "renounceOwnership",
      "outputs": [],
      "stateMutability": "nonpayable",
      "type": "function"
    },
    {
      "inputs": [],
      "name": "sapiencePerPaymentUnit",
      "outputs": [
        {
          "internalType": "uint256",
          "name": "",
          "type": "uint256"
        }
      ],
      "stateMutability": "view",
      "type": "function"
    },
    {
      "inputs": [],
      "name": "sapienceToken",
      "outputs": [
        {
          "internalType": "contract IERC20",
          "name": "",
          "type": "address"
        }
      ],
      "stateMutability": "view",
      "type": "function"
    },
    {
      "inputs": [
        {
          "internalType": "uint256",
          "name": "sapienceAmount",
          "type": "uint256"
        }
      ],
      "name": "sell",
      "outputs": [],
      "stateMutability": "nonpayable",
      "type": "function"
    },
    {
      "inputs": [
        {
          "internalType": "address",
          "name": "newOwner",
          "type": "address"
        }
      ],
      "name": "transferOwnership",
      "outputs": [],
      "stateMutability": "nonpayable",
      "type": "function"
    },
    {
      "inputs": [
        {
          "internalType": "address",
          "name": "token",
          "type": "address"
        },
        {
          "internalType": "address",
          "name": "to",
          "type": "address"
        },
        {
          "internalType": "uint256",
          "name": "amount",
          "type": "uint256"
        }
      ],
      "name": "withdrawToken",
      "outputs": [],
      "stateMutability": "nonpayable",
      "type": "function"
    }
  ],
  "bytecode": "0x6101206040523480156200001257600080fd5b5060405162001fb238038062001fb2833981810160405281019062000038919062000588565b83600073ffffffffffffffffffffffffffffffffffffffff168173ffffffffffffffffffffffffffffffffffffffff1603620000ae5760006040517f1e4fbdf7000000000000000000000000000000000000000000000000000000008152600401620000a591906200060b565b60405180910390fd5b620000bf81620003ea60201b60201c565b506001620000e2620000d6620004ae60201b60201c565b620004d960201b60201c565b60000181905550600073ffffffffffffffffffffffffffffffffffffffff168373ffffffffffffffffffffffffffffffffffffffff16036200015b576040517f08c379a0000000000000000000000000000000000000000000000000000000008152600401620001529062000689565b60405180910390fd5b600073ffffffffffffffffffffffffffffffffffffffff168273ffffffffffffffffffffffffffffffffffffffff1603620001cd576040517f08c379a0000000000000000000000000000000000000000000000000000000008152600401620001c490620006fb565b60405180910390fd5b6000811162000213576040517f08c379a00000000000000000000000000000000000000000000000000000000081526004016200020a906200076d565b60405180910390fd5b8273ffffffffffffffffffffffffffffffffffffffff1660808173ffffffffffffffffffffffffffffffffffffffff16815250508173ffffffffffffffffffffffffffffffffffffffff1660a08173ffffffffffffffffffffffffffffffffffffffff16815250508060c0818152505060008373ffffffffffffffffffffffffffffffffffffffff1663313ce5676040518163ffffffff1660e01b8152600401602060405180830381865afa158015620002d1573d6000803e3d6000fd5b505050506040513d601f19601f82011682018060405250810190620002f79190620007cd565b905060008373ffffffffffffffffffffffffffffffffffffffff1663313ce5676040518163ffffffff1660e01b8152600401602060405180830381865afa15801562000347573d6000803e3d6000fd5b505050506040513d601f19601f820116820180604052508101906200036d9190620007cd565b90508060ff168260ff1610620003b05780826200038b91906200082e565b600a620003999190620009be565b60e0818152505060016101008181525050620003de565b600160e081815250508181620003c791906200082e565b600a620003d59190620009be565b61010081815250505b50505050505062000a0f565b60008060009054906101000a900473ffffffffffffffffffffffffffffffffffffffff169050816000806101000a81548173ffffffffffffffffffffffffffffffffffffffff021916908373ffffffffffffffffffffffffffffffffffffffff1602179055508173ffffffffffffffffffffffffffffffffffffffff168173ffffffffffffffffffffffffffffffffffffffff167f8be0079c531659141344cd1fd0a4f28419497f9722a3daafe3b4186f6b6457e060405160405180910390a35050565b60007f9b779b17422d0df92223018b32b4d1fa46e071723d6817e2486d003becc55f0060001b905090565b6000819050919050565b600080fd5b600073ffffffffffffffffffffffffffffffffffffffff82169050919050565b60006200051582620004e8565b9050919050565b620005278162000508565b81146200053357600080fd5b50565b60008151905062000547816200051c565b92915050565b6000819050919050565b62000562816200054d565b81146200056e57600080fd5b50565b600081519050620005828162000557565b92915050565b60008060008060808587031215620005a557620005a4620004e3565b5b6000620005b58782880162000536565b9450506020620005c88782880162000536565b9350506040620005db8782880162000536565b9250506060620005ee8782880162000571565b91505092959194509250565b620006058162000508565b82525050565b6000602082019050620006226000830184620005fa565b92915050565b600082825260208201905092915050565b7f496e76616c69642073617069656e636520746f6b656e00000000000000000000600082015250565b60006200067160168362000628565b91506200067e8262000639565b602082019050919050565b60006020820190508181036000830152620006a48162000662565b9050919050565b7f496e76616c6964207061796d656e7420746f6b656e0000000000000000000000600082015250565b6000620006e360158362000628565b9150620006f082620006ab565b602082019050919050565b600060208201905081810360008301526200071681620006d4565b9050919050565b7f496e76616c696420726174650000000000000000000000000000000000000000600082015250565b600062000755600c8362000628565b915062000762826200071d565b602082019050919050565b60006020820190508181036000830152620007888162000746565b9050919050565b600060ff82169050919050565b620007a7816200078f565b8114620007b357600080fd5b50565b600081519050620007c7816200079c565b92915050565b600060208284031215620007e657620007e5620004e3565b5b6000620007f684828501620007b6565b91505092915050565b7f4e487b7100000000000000000000000000000000000000000000000000000000600052601160045260246000fd5b60006200083b826200078f565b915062000848836200078f565b9250828203905060ff811115620008645762000863620007ff565b5b92915050565b60008160011c9050919050565b6000808291508390505b6001851115620008c957808604811115620008a157620008a0620007ff565b5b6001851615620008b15780820291505b8081029050620008c1856200086a565b945062000881565b94509492505050565b600082620008e45760019050620009b7565b81620008f45760009050620009b7565b81600181146200090d576002811462000918576200094e565b6001915050620009b7565b60ff8411156200092d576200092c620007ff565b5b8360020a915084821115620009475762000946620007ff565b5b50620009b7565b5060208310610133831016604e8410600b8410161715620009885782820a905083811115620009825762000981620007ff565b5b620009b7565b62000997848484600162000877565b92509050818404811115620009b157620009b0620007ff565b5b81810290505b9392505050565b6000620009cb826200054d565b9150620009d8836200078f565b925062000a077fffffffffffffffffffffffffffffffffffffffffffffffffffffffffffffffff8484620008d2565b905092915050565b60805160a05160c05160e0516101005161151862000a9a6000396000818161041a0152610abf01526000818161043b0152610a7301526000818161045c015281816104a40152610a940152600081816103c0015281816106820152818161080c01526109390152600081816103e4015281816105a1015281816106ce01526108ed01526115186000f3fe608060405234801561001057600080fd5b50600436106100a95760003560e01c8063715018a611610071578063715018a6146101545780638da5cb5b1461015e578063d96a094a1461017c578063e4849b3214610198578063f2fde38b146101b4578063fb3dd95f146101d0576100a9565b806301e33667146100ae5780633013ce29146100ca578063317175b9146100e857806348153279146101065780635db0d1d014610136575b600080fd5b6100c860048036038101906100c39190610f46565b610200565b005b6100d26103be565b6040516100df9190610ff8565b60405180910390f35b6100f06103e2565b6040516100fd9190610ff8565b60405180910390f35b610120600480360381019061011b9190611013565b610406565b60405161012d919061104f565b60405180910390f35b61013e6104a2565b60405161014b919061104f565b60405180910390f35b61015c6104c6565b005b6101666104da565b6040516101739190611079565b60405180910390f35b61019660048036038101906101919190611013565b610503565b005b6101b260048036038101906101ad9190611013565b61076e565b005b6101ce60048036038101906101c99190611094565b6109d9565b005b6101ea60048036038101906101e59190611013565b610a5f565b6040516101f7919061104f565b60405180910390f35b610208610afb565b600073ffffffffffffffffffffffffffffffffffffffff168373ffffffffffffffffffffffffffffffffffffffff1603610277576040517f08c379a000000000000000000000000000000000000000000000000000000000815260040161026e9061111e565b60405180910390fd5b600073ffffffffffffffffffffffffffffffffffffffff168273ffffffffffffffffffffffffffffffffffffffff16036102e6576040517f08c379a00000000000000000000000000000000000000000000000000000000081526004016102dd9061118a565b60405180910390fd5b60008111610329576040517f08c379a0000000000000000000000000000000000000000000000000000000008152600401610320906111f6565b60405180910390fd5b61035482828573ffffffffffffffffffffffffffffffffffffffff16610b829092919063ffffffff16565b8173ffffffffffffffffffffffffffffffffffffffff168373ffffffffffffffffffffffffffffffffffffffff167fd1c19fbcd4551a5edfb66d43d2e337c04837afda3482b42bdf569a8fccdae5fb836040516103b1919061104f565b60405180910390a3505050565b7f000000000000000000000000000000000000000000000000000000000000000081565b7f000000000000000000000000000000000000000000000000000000000000000081565b6000808203610418576000905061049d565b7f00000000000000000000000000000000000000000000000000000000000000007f00000000000000000000000000000000000000000000000000000000000000007f0000000000000000000000000000000000000000000000000000000000000000846104869190611245565b6104909190611245565b61049a91906112b6565b90505b919050565b7f000000000000000000000000000000000000000000000000000000000000000081565b6104ce610afb565b6104d86000610bd5565b565b60008060009054906101000a900473ffffffffffffffffffffffffffffffffffffffff16905090565b61050b610c99565b6000811161054e576040517f08c379a0000000000000000000000000000000000000000000000000000000008152600401610545906111f6565b60405180910390fd5b600061055982610406565b90506000811161059e576040517f08c379a000000000000000000000000000000000000000000000000000000000815260040161059590611333565b60405180910390fd5b807f000000000000000000000000000000000000000000000000000000000000000073ffffffffffffffffffffffffffffffffffffffff166370a08231306040518263ffffffff1660e01b81526004016105f89190611079565b602060405180830381865afa158015610615573d6000803e3d6000fd5b505050506040513d601f19601f820116820180604052508101906106399190611368565b101561067a576040517f08c379a000000000000000000000000000000000000000000000000000000000815260040161067190611407565b60405180910390fd5b6106c73330847f000000000000000000000000000000000000000000000000000000000000000073ffffffffffffffffffffffffffffffffffffffff16610cbc909392919063ffffffff16565b61071233827f000000000000000000000000000000000000000000000000000000000000000073ffffffffffffffffffffffffffffffffffffffff16610b829092919063ffffffff16565b3373ffffffffffffffffffffffffffffffffffffffff167fa9a40dec7a304e5915d11358b968c1e8d365992abf20f82285d1df1b30c8e24c838360405161075a929190611427565b60405180910390a25061076b610d11565b50565b610776610c99565b600081116107b9576040517f08c379a00000000000000000000000000000000000000000000000000000000081526004016107b0906111f6565b60405180910390fd5b60006107c482610a5f565b905060008111610809576040517f08c379a000000000000000000000000000000000000000000000000000000000815260040161080090611333565b60405180910390fd5b807f000000000000000000000000000000000000000000000000000000000000000073ffffffffffffffffffffffffffffffffffffffff166370a08231306040518263ffffffff1660e01b81526004016108639190611079565b602060405180830381865afa158015610880573d6000803e3d6000fd5b505050506040513d601f19601f820116820180604052508101906108a49190611368565b10156108e5576040517f08c379a00000000000000000000000000000000000000000000000000000000081526004016108dc906114c2565b60405180910390fd5b6109323330847f000000000000000000000000000000000000000000000000000000000000000073ffffffffffffffffffffffffffffffffffffffff16610cbc909392919063ffffffff16565b61097d33827f000000000000000000000000000000000000000000000000000000000000000073ffffffffffffffffffffffffffffffffffffffff16610b829092919063ffffffff16565b3373ffffffffffffffffffffffffffffffffffffffff167fbac9694ac0daa55169abd117086fe32c89401d9a3b15dd1d34e55e0aa4e47a9d83836040516109c5929190611427565b60405180910390a2506109d6610d11565b50565b6109e1610afb565b600073ffffffffffffffffffffffffffffffffffffffff168173ffffffffffffffffffffffffffffffffffffffff1603610a535760006040517f1e4fbdf7000000000000000000000000000000000000000000000000000000008152600401610a4a9190611079565b60405180910390fd5b610a5c81610bd5565b50565b6000808203610a715760009050610af6565b7f00000000000000000000000000000000000000000000000000000000000000007f0000000000000000000000000000000000000000000000000000000000000000610abd9190611245565b7f000000000000000000000000000000000000000000000000000000000000000083610ae99190611245565b610af391906112b6565b90505b919050565b610b03610d2c565b73ffffffffffffffffffffffffffffffffffffffff16610b216104da565b73ffffffffffffffffffffffffffffffffffffffff1614610b8057610b44610d2c565b6040517f118cdaa7000000000000000000000000000000000000000000000000000000008152600401610b779190611079565b60405180910390fd5b565b610b8f8383836001610d34565b610bd057826040517f5274afe7000000000000000000000000000000000000000000000000000000008152600401610bc79190611079565b60405180910390fd5b505050565b60008060009054906101000a900473ffffffffffffffffffffffffffffffffffffffff169050816000806101000a81548173ffffffffffffffffffffffffffffffffffffffff021916908373ffffffffffffffffffffffffffffffffffffffff1602179055508173ffffffffffffffffffffffffffffffffffffffff168173ffffffffffffffffffffffffffffffffffffffff167f8be0079c531659141344cd1fd0a4f28419497f9722a3daafe3b4186f6b6457e060405160405180910390a35050565b610ca1610d9e565b6002610cb3610cae610ddf565b610e0a565b60000181905550565b610cca848484846001610e14565b610d0b57836040517f5274afe7000000000000000000000000000000000000000000000000000000008152600401610d029190611079565b60405180910390fd5b50505050565b6001610d23610d1e610ddf565b610e0a565b60000181905550565b600033905090565b60008063a9059cbb60e01b90506040518160005260001960601c8616600452846024526020600060446000808b5af192506001600051148316610d90578383151615610d83573d6000823e3d81fd5b6000873b113d1516831692505b806040525050949350505050565b610da6610e8f565b15610ddd576040517f3ee5aeb500000000000000000000000000000000000000000000000000000000815260040160405180910390fd5b565b60007f9b779b17422d0df92223018b32b4d1fa46e071723d6817e2486d003becc55f0060001b905090565b6000819050919050565b6000806323b872dd60e01b90506040518160005260001960601c871660045260001960601c8616602452846044526020600060646000808c5af192506001600051148316610e7b578383151615610e6e573d6000823e3d81fd5b6000883b113d1516831692505b806040526000606052505095945050505050565b60006002610ea3610e9e610ddf565b610e0a565b6000015414905090565b600080fd5b600073ffffffffffffffffffffffffffffffffffffffff82169050919050565b6000610edd82610eb2565b9050919050565b610eed81610ed2565b8114610ef857600080fd5b50565b600081359050610f0a81610ee4565b92915050565b6000819050919050565b610f2381610f10565b8114610f2e57600080fd5b50565b600081359050610f4081610f1a565b92915050565b600080600060608486031215610f5f57610f5e610ead565b5b6000610f6d86828701610efb565b9350506020610f7e86828701610efb565b9250506040610f8f86828701610f31565b9150509250925092565b6000819050919050565b6000610fbe610fb9610fb484610eb2565b610f99565b610eb2565b9050919050565b6000610fd082610fa3565b9050919050565b6000610fe282610fc5565b9050919050565b610ff281610fd7565b82525050565b600060208201905061100d6000830184610fe9565b92915050565b60006020828403121561102957611028610ead565b5b600061103784828501610f31565b91505092915050565b61104981610f10565b82525050565b60006020820190506110646000830184611040565b92915050565b61107381610ed2565b82525050565b600060208201905061108e600083018461106a565b92915050565b6000602082840312156110aa576110a9610ead565b5b60006110b884828501610efb565b91505092915050565b600082825260208201905092915050565b7f496e76616c696420746f6b656e00000000000000000000000000000000000000600082015250565b6000611108600d836110c1565b9150611113826110d2565b602082019050919050565b60006020820190508181036000830152611137816110fb565b9050919050565b7f496e76616c696420726563697069656e74000000000000000000000000000000600082015250565b60006111746011836110c1565b915061117f8261113e565b602082019050919050565b600060208201905081810360008301526111a381611167565b9050919050565b7f416d6f756e74206d757374206265203e20300000000000000000000000000000600082015250565b60006111e06012836110c1565b91506111eb826111aa565b602082019050919050565b6000602082019050818103600083015261120f816111d3565b9050919050565b7f4e487b7100000000000000000000000000000000000000000000000000000000600052601160045260246000fd5b600061125082610f10565b915061125b83610f10565b925082820261126981610f10565b915082820484148315176112805761127f611216565b5b5092915050565b7f4e487b7100000000000000000000000000000000000000000000000000000000600052601260045260246000fd5b60006112c182610f10565b91506112cc83610f10565b9250826112dc576112db611287565b5b828204905092915050565b7f4f757470757420746f6f20736d616c6c00000000000000000000000000000000600082015250565b600061131d6010836110c1565b9150611328826112e7565b602082019050919050565b6000602082019050818103600083015261134c81611310565b9050919050565b60008151905061136281610f1a565b92915050565b60006020828403121561137e5761137d610ead565b5b600061138c84828501611353565b91505092915050565b7f496e73756666696369656e74206d61726b65742073617069656e6365206c697160008201527f7569646974790000000000000000000000000000000000000000000000000000602082015250565b60006113f16026836110c1565b91506113fc82611395565b604082019050919050565b60006020820190508181036000830152611420816113e4565b9050919050565b600060408201905061143c6000830185611040565b6114496020830184611040565b9392505050565b7f496e73756666696369656e74206d61726b6574207061796d656e74206c69717560008201527f6964697479000000000000000000000000000000000000000000000000000000602082015250565b60006114ac6025836110c1565b91506114b782611450565b604082019050919050565b600060208201905081810360008301526114db8161149f565b905091905056fea26469706673582212206d2d001f505c8f6b1caf97e2d3af39deb8177bbb99c6dad24c8099e700b580bb64736f6c63430008180033",
  "linkReferences": {},
  "deployedLinkReferences": {}
}